{
  "_format": "hh-sol-artifact-1",
  "contractName": "myBasketballNFT",
  "sourceName": "contracts/myBasketballNFT.sol",
  "abi": [
    {
      "inputs": [],
      "stateMutability": "nonpayable",
      "type": "constructor"
    },
    {
      "anonymous": false,
      "inputs": [
        {
          "indexed": true,
          "internalType": "address",
          "name": "owner",
          "type": "address"
        },
        {
          "indexed": true,
          "internalType": "address",
          "name": "approved",
          "type": "address"
        },
        {
          "indexed": true,
          "internalType": "uint256",
          "name": "tokenId",
          "type": "uint256"
        }
      ],
      "name": "Approval",
      "type": "event"
    },
    {
      "anonymous": false,
      "inputs": [
        {
          "indexed": true,
          "internalType": "address",
          "name": "owner",
          "type": "address"
        },
        {
          "indexed": true,
          "internalType": "address",
          "name": "operator",
          "type": "address"
        },
        {
          "indexed": false,
          "internalType": "bool",
          "name": "approved",
          "type": "bool"
        }
      ],
      "name": "ApprovalForAll",
      "type": "event"
    },
    {
      "anonymous": false,
      "inputs": [
        {
          "indexed": false,
          "internalType": "address",
          "name": "sender",
          "type": "address"
        },
        {
          "indexed": false,
          "internalType": "uint256",
          "name": "tokenId",
          "type": "uint256"
        }
      ],
      "name": "NewEpicNFTMinted",
      "type": "event"
    },
    {
      "anonymous": false,
      "inputs": [
        {
          "indexed": true,
          "internalType": "address",
          "name": "from",
          "type": "address"
        },
        {
          "indexed": true,
          "internalType": "address",
          "name": "to",
          "type": "address"
        },
        {
          "indexed": true,
          "internalType": "uint256",
          "name": "tokenId",
          "type": "uint256"
        }
      ],
      "name": "Transfer",
      "type": "event"
    },
    {
      "inputs": [
        {
          "internalType": "address",
          "name": "to",
          "type": "address"
        },
        {
          "internalType": "uint256",
          "name": "tokenId",
          "type": "uint256"
        }
      ],
      "name": "approve",
      "outputs": [],
      "stateMutability": "nonpayable",
      "type": "function"
    },
    {
      "inputs": [
        {
          "internalType": "address",
          "name": "owner",
          "type": "address"
        }
      ],
      "name": "balanceOf",
      "outputs": [
        {
          "internalType": "uint256",
          "name": "",
          "type": "uint256"
        }
      ],
      "stateMutability": "view",
      "type": "function"
    },
    {
      "inputs": [
        {
          "internalType": "uint256",
          "name": "tokenId",
          "type": "uint256"
        }
      ],
      "name": "getApproved",
      "outputs": [
        {
          "internalType": "address",
          "name": "",
          "type": "address"
        }
      ],
      "stateMutability": "view",
      "type": "function"
    },
    {
      "inputs": [
        {
          "internalType": "uint256",
          "name": "tokenID",
          "type": "uint256"
        }
      ],
      "name": "getTotalNFT",
      "outputs": [
        {
          "internalType": "uint256",
          "name": "totNum",
          "type": "uint256"
        }
      ],
      "stateMutability": "view",
      "type": "function"
    },
    {
      "inputs": [
        {
          "internalType": "address",
          "name": "owner",
          "type": "address"
        },
        {
          "internalType": "address",
          "name": "operator",
          "type": "address"
        }
      ],
      "name": "isApprovedForAll",
      "outputs": [
        {
          "internalType": "bool",
          "name": "",
          "type": "bool"
        }
      ],
      "stateMutability": "view",
      "type": "function"
    },
    {
      "inputs": [],
      "name": "makeAnEpicNFT",
      "outputs": [],
      "stateMutability": "nonpayable",
      "type": "function"
    },
    {
      "inputs": [],
      "name": "name",
      "outputs": [
        {
          "internalType": "string",
          "name": "",
          "type": "string"
        }
      ],
      "stateMutability": "view",
      "type": "function"
    },
    {
      "inputs": [
        {
          "internalType": "uint256",
          "name": "tokenId",
          "type": "uint256"
        }
      ],
      "name": "ownerOf",
      "outputs": [
        {
          "internalType": "address",
          "name": "",
          "type": "address"
        }
      ],
      "stateMutability": "view",
      "type": "function"
    },
    {
      "inputs": [
        {
          "internalType": "uint256",
          "name": "tokenID",
          "type": "uint256"
        }
      ],
      "name": "pickRandColor",
      "outputs": [
        {
          "internalType": "string",
          "name": "",
          "type": "string"
        }
      ],
      "stateMutability": "view",
      "type": "function"
    },
    {
      "inputs": [
        {
          "internalType": "uint256",
          "name": "tokenID",
          "type": "uint256"
        }
      ],
      "name": "pickRandTxtColor",
      "outputs": [
        {
          "internalType": "string",
          "name": "",
          "type": "string"
        }
      ],
      "stateMutability": "view",
      "type": "function"
    },
    {
      "inputs": [
        {
          "internalType": "uint256",
          "name": "tokenId",
          "type": "uint256"
        }
      ],
      "name": "pickRandomFirstWord",
      "outputs": [
        {
          "internalType": "string",
          "name": "",
          "type": "string"
        }
      ],
      "stateMutability": "view",
      "type": "function"
    },
    {
      "inputs": [
        {
          "internalType": "uint256",
          "name": "tokenId",
          "type": "uint256"
        }
      ],
      "name": "pickRandomFont",
      "outputs": [
        {
          "internalType": "string",
          "name": "",
          "type": "string"
        }
      ],
      "stateMutability": "view",
      "type": "function"
    },
    {
      "inputs": [
        {
          "internalType": "uint256",
          "name": "tokenId",
          "type": "uint256"
        }
      ],
      "name": "pickRandomSecondWord",
      "outputs": [
        {
          "internalType": "string",
          "name": "",
          "type": "string"
        }
      ],
      "stateMutability": "view",
      "type": "function"
    },
    {
      "inputs": [
        {
          "internalType": "uint256",
          "name": "tokenId",
          "type": "uint256"
        }
      ],
      "name": "pickRandomThirdWord",
      "outputs": [
        {
          "internalType": "string",
          "name": "",
          "type": "string"
        }
      ],
      "stateMutability": "view",
      "type": "function"
    },
    {
      "inputs": [
        {
          "internalType": "address",
          "name": "from",
          "type": "address"
        },
        {
          "internalType": "address",
          "name": "to",
          "type": "address"
        },
        {
          "internalType": "uint256",
          "name": "tokenId",
          "type": "uint256"
        }
      ],
      "name": "safeTransferFrom",
      "outputs": [],
      "stateMutability": "nonpayable",
      "type": "function"
    },
    {
      "inputs": [
        {
          "internalType": "address",
          "name": "from",
          "type": "address"
        },
        {
          "internalType": "address",
          "name": "to",
          "type": "address"
        },
        {
          "internalType": "uint256",
          "name": "tokenId",
          "type": "uint256"
        },
        {
          "internalType": "bytes",
          "name": "_data",
          "type": "bytes"
        }
      ],
      "name": "safeTransferFrom",
      "outputs": [],
      "stateMutability": "nonpayable",
      "type": "function"
    },
    {
      "inputs": [
        {
          "internalType": "address",
          "name": "operator",
          "type": "address"
        },
        {
          "internalType": "bool",
          "name": "approved",
          "type": "bool"
        }
      ],
      "name": "setApprovalForAll",
      "outputs": [],
      "stateMutability": "nonpayable",
      "type": "function"
    },
    {
      "inputs": [
        {
          "internalType": "bytes4",
          "name": "interfaceId",
          "type": "bytes4"
        }
      ],
      "name": "supportsInterface",
      "outputs": [
        {
          "internalType": "bool",
          "name": "",
          "type": "bool"
        }
      ],
      "stateMutability": "view",
      "type": "function"
    },
    {
      "inputs": [],
      "name": "symbol",
      "outputs": [
        {
          "internalType": "string",
          "name": "",
          "type": "string"
        }
      ],
      "stateMutability": "view",
      "type": "function"
    },
    {
      "inputs": [
        {
          "internalType": "uint256",
          "name": "tokenId",
          "type": "uint256"
        }
      ],
      "name": "tokenURI",
      "outputs": [
        {
          "internalType": "string",
          "name": "",
          "type": "string"
        }
      ],
      "stateMutability": "view",
      "type": "function"
    },
    {
      "inputs": [
        {
          "internalType": "address",
          "name": "from",
          "type": "address"
        },
        {
          "internalType": "address",
          "name": "to",
          "type": "address"
        },
        {
          "internalType": "uint256",
          "name": "tokenId",
          "type": "uint256"
        }
      ],
      "name": "transferFrom",
      "outputs": [],
      "stateMutability": "nonpayable",
      "type": "function"
    }
  ],
  "bytecode": "0x60806040526040518060a00160405280607981526020016200505260799139600890805190602001906200003592919062000c5e565b506040518060400160405280601081526020017f273b20666f6e742d66616d696c793a2000000000000000000000000000000000815250600990805190602001906200008392919062000c5e565b506040518060800160405280604481526020016200512260449139600a9080519060200190620000b592919062000c5e565b50604051806080016040528060578152602001620050cb60579139600b9080519060200190620000e792919062000c5e565b506040518060a001604052806040518060400160405280600581526020017f617269616c00000000000000000000000000000000000000000000000000000081525081526020016040518060400160405280600981526020017f68656c766574696361000000000000000000000000000000000000000000000081525081526020016040518060400160405280600581526020017f736572696600000000000000000000000000000000000000000000000000000081525081526020016040518060400160405280600981526020017f6d6f6e6f7370616365000000000000000000000000000000000000000000000081525081526020016040518060400160405280600781526020017f6375727369766500000000000000000000000000000000000000000000000000815250815250600c9060056200022a92919062000cef565b506040518061012001604052806040518060400160405280600681526020017f436c75746368000000000000000000000000000000000000000000000000000081525081526020016040518060400160405280600781526020017f536e69706572200000000000000000000000000000000000000000000000000081525081526020016040518060400160405280600e81526020017f416e6b6c6520427265616b65722000000000000000000000000000000000000081525081526020016040518060400160405280600b81526020017f427269636b2057616c6c2000000000000000000000000000000000000000000081525081526020016040518060400160405280600c81526020017f5069636b20506f636b657420000000000000000000000000000000000000000081525081526020016040518060400160405280600c81526020017f52696d204372757368657220000000000000000000000000000000000000000081525081526020016040518060400160405280600981526020017f536c69746865727920000000000000000000000000000000000000000000000081525081526020016040518060400160405280600781526020017f446561646c79200000000000000000000000000000000000000000000000000081525081526020016040518060400160405280600781526020017f5368696674792000000000000000000000000000000000000000000000000000815250815250600d9060096200045a92919062000d56565b506040518061010001604052806040518060400160405280600c81526020017f506f696e7420477561726420000000000000000000000000000000000000000081525081526020016040518060400160405280600781526020017f43656e746572200000000000000000000000000000000000000000000000000081525081526020016040518060400160405280600e81526020017f536d616c6c20466f72776172642000000000000000000000000000000000000081525081526020016040518060400160405280600e81526020017f506f77657220466f72776172642000000000000000000000000000000000000081525081526020016040518060400160405280600981526020017f5377696e676d616e20000000000000000000000000000000000000000000000081525081526020016040518060400160405280600a81526020017f506f696e7420476f64200000000000000000000000000000000000000000000081525081526020016040518060400160405280600e81526020017f466c6f6f722047656e6572616c2000000000000000000000000000000000000081525081526020016040518060400160405280600581526020017f474f415420000000000000000000000000000000000000000000000000000000815250815250600e9060086200064f92919062000dbd565b506040518061024001604052806040518060400160405280601381526020017f4b617265656d20416264756c2d4a61626261720000000000000000000000000081525081526020016040518060400160405280600b81526020017f4b61726c5f4d616c6f6e6500000000000000000000000000000000000000000081525081526020016040518060400160405280600c81526020017f4c6542726f6e204a616d6573000000000000000000000000000000000000000081525081526020016040518060400160405280600b81526020017f4b6f626520427279616e7400000000000000000000000000000000000000000081525081526020016040518060400160405280600e81526020017f4d69636861656c204a6f7264616e00000000000000000000000000000000000081525081526020016040518060400160405280600d81526020017f4469726b204e6f7769747a6b690000000000000000000000000000000000000081525081526020016040518060400160405280601081526020017f57696c74204368616d6265726c61696e0000000000000000000000000000000081525081526020016040518060400160405280601081526020017f5368617175696c6c65204f274e65616c0000000000000000000000000000000081525081526020016040518060400160405280600f81526020017f4361726d656c6f20416e74686f6e79000000000000000000000000000000000081525081526020016040518060400160405280600c81526020017f4d6f736573204d616c6f6e65000000000000000000000000000000000000000081525081526020016040518060400160405280600e81526020017f446172697573204761726c616e6400000000000000000000000000000000000081525081526020016040518060400160405280600d81526020017f436f6c6c696e20536578746f6e0000000000000000000000000000000000000081525081526020016040518060400160405280600b81526020017f4973616163204f6b6f726f00000000000000000000000000000000000000000081525081526020016040518060400160405280600b81526020017f4576616e204d6f626c657900000000000000000000000000000000000000000081525081526020016040518060400160405280600d81526020017f4a61727265747420416c6c656e0000000000000000000000000000000000000081525081526020016040518060400160405280600b81526020017f447761796e65205761646500000000000000000000000000000000000000000081525081526020016040518060400160405280600f81526020017f4c61727279204e616e6365204a722e000000000000000000000000000000000081525081526020016040518060400160405280600c81526020017f4761727279204861727269730000000000000000000000000000000000000000815250815250600f90601262000a9292919062000e24565b5034801562000aa057600080fd5b506040518060400160405280600d81526020017f4261736b657462616c6c4e4654000000000000000000000000000000000000008152506040518060400160405280600381526020017f42424c0000000000000000000000000000000000000000000000000000000000815250816000908051906020019062000b2592919062000c5e565b50806001908051906020019062000b3e92919062000c5e565b50505062000b8c6040518060400160405280601e81526020017f54686973206973206d79204e465420636f6e74726163742e20576f616821000081525062000b9260201b620015ba1760201c565b62001045565b62000c328160405160240162000ba9919062000f59565b6040516020818303038152906040527f41304fac000000000000000000000000000000000000000000000000000000007bffffffffffffffffffffffffffffffffffffffffffffffffffffffff19166020820180517bffffffffffffffffffffffffffffffffffffffffffffffffffffffff838183161783525050505062000c3560201b60201c565b50565b60008151905060006a636f6e736f6c652e6c6f679050602083016000808483855afa5050505050565b82805462000c6c9062000fcf565b90600052602060002090601f01602090048101928262000c90576000855562000cdc565b82601f1062000cab57805160ff191683800117855562000cdc565b8280016001018555821562000cdc579182015b8281111562000cdb57825182559160200191906001019062000cbe565b5b50905062000ceb919062000e8b565b5090565b82805482825590600052602060002090810192821562000d43579160200282015b8281111562000d4257825182908051906020019062000d3192919062000c5e565b509160200191906001019062000d10565b5b50905062000d52919062000eaa565b5090565b82805482825590600052602060002090810192821562000daa579160200282015b8281111562000da957825182908051906020019062000d9892919062000c5e565b509160200191906001019062000d77565b5b50905062000db9919062000eaa565b5090565b82805482825590600052602060002090810192821562000e11579160200282015b8281111562000e1057825182908051906020019062000dff92919062000c5e565b509160200191906001019062000dde565b5b50905062000e20919062000eaa565b5090565b82805482825590600052602060002090810192821562000e78579160200282015b8281111562000e7757825182908051906020019062000e6692919062000c5e565b509160200191906001019062000e45565b5b50905062000e87919062000eaa565b5090565b5b8082111562000ea657600081600090555060010162000e8c565b5090565b5b8082111562000ece576000818162000ec4919062000ed2565b5060010162000eab565b5090565b50805462000ee09062000fcf565b6000825580601f1062000ef4575062000f15565b601f01602090049060005260206000209081019062000f14919062000e8b565b5b50565b600062000f258262000f7d565b62000f31818562000f88565b935062000f4381856020860162000f99565b62000f4e8162001034565b840191505092915050565b6000602082019050818103600083015262000f75818462000f18565b905092915050565b600081519050919050565b600082825260208201905092915050565b60005b8381101562000fb957808201518184015260208101905062000f9c565b8381111562000fc9576000848401525b50505050565b6000600282049050600182168062000fe857607f821691505b6020821081141562000fff5762000ffe62001005565b5b50919050565b7f4e487b7100000000000000000000000000000000000000000000000000000000600052602260045260246000fd5b6000601f19601f8301169050919050565b613ffd80620010556000396000f3fe608060405234801561001057600080fd5b50600436106101375760003560e01c806370a08231116100b8578063b187301f1161007c578063b187301f14610398578063b88d4fde146103c8578063c575757a146103e4578063c87b56dd14610414578063de9d132f14610444578063e985e9c51461044e57610137565b806370a08231146102ce57806395d89b41146102fe578063a22cb4651461031c578063a739cec414610338578063a773f0951461036857610137565b806322134b13116100ff57806322134b131461020657806323b872dd146102365780632de38d681461025257806342842e0e146102825780636352211e1461029e57610137565b806301ffc9a71461013c57806306fdde031461016c578063081812fc1461018a578063083d01f6146101ba578063095ea7b3146101ea575b600080fd5b61015660048036038101906101519190612a22565b61047e565b604051610163919061380f565b60405180910390f35b610174610560565b604051610181919061382a565b60405180910390f35b6101a4600480360381019061019f9190612a74565b6105f2565b6040516101b191906137a8565b60405180910390f35b6101d460048036038101906101cf9190612a74565b610677565b6040516101e19190613aaa565b60405180910390f35b61020460048036038101906101ff91906129e6565b61068a565b005b610220600480360381019061021b9190612a74565b6107a2565b60405161022d919061382a565b60405180910390f35b610250600480360381019061024b91906128e0565b610838565b005b61026c60048036038101906102679190612a74565b610898565b604051610279919061382a565b60405180910390f35b61029c600480360381019061029791906128e0565b6109b6565b005b6102b860048036038101906102b39190612a74565b6109d6565b6040516102c591906137a8565b60405180910390f35b6102e860048036038101906102e3919061287b565b610a88565b6040516102f59190613aaa565b60405180910390f35b610306610b40565b604051610313919061382a565b60405180910390f35b610336600480360381019061033191906129aa565b610bd2565b005b610352600480360381019061034d9190612a74565b610d53565b60405161035f919061382a565b60405180910390f35b610382600480360381019061037d9190612a74565b610de9565b60405161038f919061382a565b60405180910390f35b6103b260048036038101906103ad9190612a74565b610f07565b6040516103bf919061382a565b60405180910390f35b6103e260048036038101906103dd919061292f565b611025565b005b6103fe60048036038101906103f99190612a74565b611087565b60405161040b919061382a565b60405180910390f35b61042e60048036038101906104299190612a74565b6111a5565b60405161043b919061382a565b60405180910390f35b61044c6112f7565b005b610468600480360381019061046391906128a4565b611526565b604051610475919061380f565b60405180910390f35b60007f80ac58cd000000000000000000000000000000000000000000000000000000007bffffffffffffffffffffffffffffffffffffffffffffffffffffffff1916827bffffffffffffffffffffffffffffffffffffffffffffffffffffffff1916148061054957507f5b5e139f000000000000000000000000000000000000000000000000000000007bffffffffffffffffffffffffffffffffffffffffffffffffffffffff1916827bffffffffffffffffffffffffffffffffffffffffffffffffffffffff1916145b80610559575061055882611653565b5b9050919050565b60606000805461056f90613d8d565b80601f016020809104026020016040519081016040528092919081815260200182805461059b90613d8d565b80156105e85780601f106105bd576101008083540402835291602001916105e8565b820191906000526020600020905b8154815290600101906020018083116105cb57829003601f168201915b5050505050905090565b60006105fd826116bd565b61063c576040517f08c379a000000000000000000000000000000000000000000000000000000000815260040161063390613a0a565b60405180910390fd5b6004600083815260200190815260200160002060009054906101000a900473ffffffffffffffffffffffffffffffffffffffff169050919050565b60006106836007611729565b9050919050565b6000610695826109d6565b90508073ffffffffffffffffffffffffffffffffffffffff168373ffffffffffffffffffffffffffffffffffffffff161415610706576040517f08c379a00000000000000000000000000000000000000000000000000000000081526004016106fd90613a6a565b60405180910390fd5b8073ffffffffffffffffffffffffffffffffffffffff16610725611737565b73ffffffffffffffffffffffffffffffffffffffff16148061075457506107538161074e611737565b611526565b5b610793576040517f08c379a000000000000000000000000000000000000000000000000000000000815260040161078a9061392a565b60405180910390fd5b61079d838361173f565b505050565b606060006107d66107b2846117f8565b6040516020016107c29190613675565b6040516020818303038152906040526119a5565b9050620186a0620f423f826107eb9190613e08565b6107f59190613b7e565b90505b620f423f81111561082757620186a0620f423f826108169190613e08565b6108209190613b7e565b90506107f8565b610830816119d8565b915050919050565b610849610843611737565b82611bad565b610888576040517f08c379a000000000000000000000000000000000000000000000000000000000815260040161087f90613a8a565b60405180910390fd5b610893838383611c8b565b505050565b606060006108cc6108a8846117f8565b6040516020016108b89190613764565b6040516020818303038152906040526119a5565b9050600d80549050816108df9190613e08565b9050600d818154811061091b577f4e487b7100000000000000000000000000000000000000000000000000000000600052603260045260246000fd5b90600052602060002001805461093090613d8d565b80601f016020809104026020016040519081016040528092919081815260200182805461095c90613d8d565b80156109a95780601f1061097e576101008083540402835291602001916109a9565b820191906000526020600020905b81548152906001019060200180831161098c57829003601f168201915b5050505050915050919050565b6109d183838360405180602001604052806000815250611025565b505050565b6000806002600084815260200190815260200160002060009054906101000a900473ffffffffffffffffffffffffffffffffffffffff169050600073ffffffffffffffffffffffffffffffffffffffff168173ffffffffffffffffffffffffffffffffffffffff161415610a7f576040517f08c379a0000000000000000000000000000000000000000000000000000000008152600401610a769061396a565b60405180910390fd5b80915050919050565b60008073ffffffffffffffffffffffffffffffffffffffff168273ffffffffffffffffffffffffffffffffffffffff161415610af9576040517f08c379a0000000000000000000000000000000000000000000000000000000008152600401610af09061394a565b60405180910390fd5b600360008373ffffffffffffffffffffffffffffffffffffffff1673ffffffffffffffffffffffffffffffffffffffff168152602001908152602001600020549050919050565b606060018054610b4f90613d8d565b80601f0160208091040260200160405190810160405280929190818152602001828054610b7b90613d8d565b8015610bc85780601f10610b9d57610100808354040283529160200191610bc8565b820191906000526020600020905b815481529060010190602001808311610bab57829003601f168201915b5050505050905090565b610bda611737565b73ffffffffffffffffffffffffffffffffffffffff168273ffffffffffffffffffffffffffffffffffffffff161415610c48576040517f08c379a0000000000000000000000000000000000000000000000000000000008152600401610c3f906138ea565b60405180910390fd5b8060056000610c55611737565b73ffffffffffffffffffffffffffffffffffffffff1673ffffffffffffffffffffffffffffffffffffffff16815260200190815260200160002060008473ffffffffffffffffffffffffffffffffffffffff1673ffffffffffffffffffffffffffffffffffffffff16815260200190815260200160002060006101000a81548160ff0219169083151502179055508173ffffffffffffffffffffffffffffffffffffffff16610d02611737565b73ffffffffffffffffffffffffffffffffffffffff167f17307eab39ab6107e8899845ad3d59bd9653f200f220920489ca2b5937696c3183604051610d47919061380f565b60405180910390a35050565b60606000610d87610d63846117f8565b604051602001610d7391906136fd565b6040516020818303038152906040526119a5565b9050620186a0620f423f82610d9c9190613e08565b610da69190613b7e565b90505b620f423f811115610dd857620186a0620f423f82610dc79190613e08565b610dd19190613b7e565b9050610da9565b610de1816119d8565b915050919050565b60606000610e1d610df9846117f8565b604051602001610e0991906136b9565b6040516020818303038152906040526119a5565b9050600c8054905081610e309190613e08565b9050600c8181548110610e6c577f4e487b7100000000000000000000000000000000000000000000000000000000600052603260045260246000fd5b906000526020600020018054610e8190613d8d565b80601f0160208091040260200160405190810160405280929190818152602001828054610ead90613d8d565b8015610efa5780601f10610ecf57610100808354040283529160200191610efa565b820191906000526020600020905b815481529060010190602001808311610edd57829003601f168201915b5050505050915050919050565b60606000610f3b610f17846117f8565b604051602001610f2791906136db565b6040516020818303038152906040526119a5565b9050600e8054905081610f4e9190613e08565b9050600e8181548110610f8a577f4e487b7100000000000000000000000000000000000000000000000000000000600052603260045260246000fd5b906000526020600020018054610f9f90613d8d565b80601f0160208091040260200160405190810160405280929190818152602001828054610fcb90613d8d565b80156110185780601f10610fed57610100808354040283529160200191611018565b820191906000526020600020905b815481529060010190602001808311610ffb57829003601f168201915b5050505050915050919050565b611036611030611737565b83611bad565b611075576040517f08c379a000000000000000000000000000000000000000000000000000000000815260040161106c90613a8a565b60405180910390fd5b61108184848484611ee7565b50505050565b606060006110bb611097846117f8565b6040516020016110a79190613697565b6040516020818303038152906040526119a5565b9050600f80549050816110ce9190613e08565b9050600f818154811061110a577f4e487b7100000000000000000000000000000000000000000000000000000000600052603260045260246000fd5b90600052602060002001805461111f90613d8d565b80601f016020809104026020016040519081016040528092919081815260200182805461114b90613d8d565b80156111985780601f1061116d57610100808354040283529160200191611198565b820191906000526020600020905b81548152906001019060200180831161117b57829003601f168201915b5050505050915050919050565b60606111b0826116bd565b6111ef576040517f08c379a00000000000000000000000000000000000000000000000000000000081526004016111e6906139ea565b60405180910390fd5b600060066000848152602001908152602001600020805461120f90613d8d565b80601f016020809104026020016040519081016040528092919081815260200182805461123b90613d8d565b80156112885780601f1061125d57610100808354040283529160200191611288565b820191906000526020600020905b81548152906001019060200180831161126b57829003601f168201915b505050505090506000611299611f43565b90506000815114156112af5781925050506112f2565b6000825111156112e45780826040516020016112cc929190613589565b604051602081830303815290604052925050506112f2565b6112ed84611f5a565b925050505b919050565b60006113036007611729565b90506101f48110611349576040517f08c379a0000000000000000000000000000000000000000000000000000000008152600401611340906139aa565b60405180910390fd5b600061135482610898565b9050600061136183610f07565b9050600061136e84611087565b9050600061137b856107a2565b9050600061138886610d53565b9050600061139587610de9565b905060008686866040516020016113ae939291906135ad565b60405160208183030381529060405290506000600885600985600a88600b8e8e8e6040516020016113e89a999897969594939291906135de565b6040516020818303038152906040529050600061142d8361140884612001565b60405160200161141992919061371f565b604051602081830303815290604052612001565b90506000816040516020016114429190613786565b60405160208183030381529060405290506114916040518060400160405280601581526020017f0a2d2d2d2d2d2d2d2d2d2d2d2d2d2d2d2d2d2d2d2d00000000000000000000008152506115ba565b61149a816115ba565b6114d86040518060400160405280601581526020017f2d2d2d2d2d2d2d2d2d2d2d2d2d2d2d2d2d2d2d2d0a00000000000000000000008152506115ba565b6114e2338c6121bf565b6114ec8b826121dd565b6114f66007612251565b611519604051806060016040528060258152602001613f63602591398c33612267565b5050505050505050505050565b6000600560008473ffffffffffffffffffffffffffffffffffffffff1673ffffffffffffffffffffffffffffffffffffffff16815260200190815260200160002060008373ffffffffffffffffffffffffffffffffffffffff1673ffffffffffffffffffffffffffffffffffffffff16815260200190815260200160002060009054906101000a900460ff16905092915050565b611650816040516024016115ce919061382a565b6040516020818303038152906040527f41304fac000000000000000000000000000000000000000000000000000000007bffffffffffffffffffffffffffffffffffffffffffffffffffffffff19166020820180517bffffffffffffffffffffffffffffffffffffffffffffffffffffffff8381831617835250505050612306565b50565b60007f01ffc9a7000000000000000000000000000000000000000000000000000000007bffffffffffffffffffffffffffffffffffffffffffffffffffffffff1916827bffffffffffffffffffffffffffffffffffffffffffffffffffffffff1916149050919050565b60008073ffffffffffffffffffffffffffffffffffffffff166002600084815260200190815260200160002060009054906101000a900473ffffffffffffffffffffffffffffffffffffffff1673ffffffffffffffffffffffffffffffffffffffff1614159050919050565b600081600001549050919050565b600033905090565b816004600083815260200190815260200160002060006101000a81548173ffffffffffffffffffffffffffffffffffffffff021916908373ffffffffffffffffffffffffffffffffffffffff160217905550808273ffffffffffffffffffffffffffffffffffffffff166117b2836109d6565b73ffffffffffffffffffffffffffffffffffffffff167f8c5be1e5ebec7d5bd14f71427d1e84f3dd0314c0f7b2291e5b200ac8c7c3b92560405160405180910390a45050565b60606000821415611840576040518060400160405280600181526020017f300000000000000000000000000000000000000000000000000000000000000081525090506119a0565b600082905060005b6000821461187257808061185b90613dbf565b915050600a8261186b9190613c0b565b9150611848565b60008167ffffffffffffffff8111156118b4577f4e487b7100000000000000000000000000000000000000000000000000000000600052604160045260246000fd5b6040519080825280601f01601f1916602001820160405280156118e65781602001600182028036833780820191505090505b5090505b60008514611999576001826118ff9190613c96565b9150600a8561190e9190613e08565b603061191a9190613b7e565b60f81b818381518110611956577f4e487b7100000000000000000000000000000000000000000000000000000000600052603260045260246000fd5b60200101907effffffffffffffffffffffffffffffffffffffffffffffffffffffffffffff1916908160001a905350600a856119929190613c0b565b94506118ea565b8093505050505b919050565b6000816040516020016119b89190613572565b6040516020818303038152906040528051906020012060001c9050919050565b60606000821415611a20576040518060400160405280600181526020017f30000000000000000000000000000000000000000000000000000000000000008152509050611ba8565b600082905060005b60008214611a52578080611a3b90613dbf565b915050600a82611a4b9190613c0b565b9150611a28565b60008167ffffffffffffffff811115611a94577f4e487b7100000000000000000000000000000000000000000000000000000000600052604160045260246000fd5b6040519080825280601f01601f191660200182016040528015611ac65781602001600182028036833780820191505090505b50905060008290505b60008614611ba057600181611ae49190613c96565b90506000600a8088611af69190613c0b565b611b009190613c3c565b87611b0b9190613c96565b6030611b179190613bd4565b905060008160f81b905080848481518110611b5b577f4e487b7100000000000000000000000000000000000000000000000000000000600052603260045260246000fd5b60200101907effffffffffffffffffffffffffffffffffffffffffffffffffffffffffffff1916908160001a905350600a88611b979190613c0b565b97505050611acf565b819450505050505b919050565b6000611bb8826116bd565b611bf7576040517f08c379a0000000000000000000000000000000000000000000000000000000008152600401611bee9061390a565b60405180910390fd5b6000611c02836109d6565b90508073ffffffffffffffffffffffffffffffffffffffff168473ffffffffffffffffffffffffffffffffffffffff161480611c7157508373ffffffffffffffffffffffffffffffffffffffff16611c59846105f2565b73ffffffffffffffffffffffffffffffffffffffff16145b80611c825750611c818185611526565b5b91505092915050565b8273ffffffffffffffffffffffffffffffffffffffff16611cab826109d6565b73ffffffffffffffffffffffffffffffffffffffff1614611d01576040517f08c379a0000000000000000000000000000000000000000000000000000000008152600401611cf890613a2a565b60405180910390fd5b600073ffffffffffffffffffffffffffffffffffffffff168273ffffffffffffffffffffffffffffffffffffffff161415611d71576040517f08c379a0000000000000000000000000000000000000000000000000000000008152600401611d68906138ca565b60405180910390fd5b611d7c83838361232f565b611d8760008261173f565b6001600360008573ffffffffffffffffffffffffffffffffffffffff1673ffffffffffffffffffffffffffffffffffffffff1681526020019081526020016000206000828254611dd79190613c96565b925050819055506001600360008473ffffffffffffffffffffffffffffffffffffffff1673ffffffffffffffffffffffffffffffffffffffff1681526020019081526020016000206000828254611e2e9190613b7e565b92505081905550816002600083815260200190815260200160002060006101000a81548173ffffffffffffffffffffffffffffffffffffffff021916908373ffffffffffffffffffffffffffffffffffffffff160217905550808273ffffffffffffffffffffffffffffffffffffffff168473ffffffffffffffffffffffffffffffffffffffff167fddf252ad1be2c89b69c2b068fc378daa952ba7f163c4a11628f55a4df523b3ef60405160405180910390a4505050565b611ef2848484611c8b565b611efe84848484612334565b611f3d576040517f08c379a0000000000000000000000000000000000000000000000000000000008152600401611f349061388a565b60405180910390fd5b50505050565b606060405180602001604052806000815250905090565b6060611f65826116bd565b611fa4576040517f08c379a0000000000000000000000000000000000000000000000000000000008152600401611f9b90613a4a565b60405180910390fd5b6000611fae611f43565b90506000815111611fce5760405180602001604052806000815250611ff9565b80611fd8846117f8565b604051602001611fe9929190613589565b6040516020818303038152906040525b915050919050565b6060600082519050600081141561202a57604051806020016040528060008152509150506121ba565b6000600360028361203b9190613b7e565b6120459190613c0b565b60046120519190613c3c565b905060006020826120629190613b7e565b67ffffffffffffffff8111156120a1577f4e487b7100000000000000000000000000000000000000000000000000000000600052604160045260246000fd5b6040519080825280601f01601f1916602001820160405280156120d35781602001600182028036833780820191505090505b5090506000604051806060016040528060408152602001613f88604091399050600181016020830160005b868110156121775760038101905062ffffff818a015116603f8160121c168401518060081b905060ff603f83600c1c1686015116810190508060081b905060ff603f8360061c1686015116810190508060081b905060ff603f831686015116810190508060e01b905080845260048401935050506120fe565b50600386066001811461219157600281146121a1576121ac565b613d3d60f01b60028303526121ac565b603d60f81b60018303525b508484525050819450505050505b919050565b6121d98282604051806020016040528060008152506124cb565b5050565b6121e6826116bd565b612225576040517f08c379a000000000000000000000000000000000000000000000000000000000815260040161221c9061398a565b60405180910390fd5b8060066000848152602001908152602001600020908051906020019061224c929190612707565b505050565b6001816000016000828254019250508190555050565b61230183838360405160240161227f9392919061384c565b6040516020818303038152906040527fe3849f79000000000000000000000000000000000000000000000000000000007bffffffffffffffffffffffffffffffffffffffffffffffffffffffff19166020820180517bffffffffffffffffffffffffffffffffffffffffffffffffffffffff8381831617835250505050612306565b505050565b60008151905060006a636f6e736f6c652e6c6f679050602083016000808483855afa5050505050565b505050565b60006123558473ffffffffffffffffffffffffffffffffffffffff16612526565b156124be578373ffffffffffffffffffffffffffffffffffffffff1663150b7a0261237e611737565b8786866040518563ffffffff1660e01b81526004016123a094939291906137c3565b602060405180830381600087803b1580156123ba57600080fd5b505af19250505080156123eb57506040513d601f19601f820116820180604052508101906123e89190612a4b565b60015b61246e573d806000811461241b576040519150601f19603f3d011682016040523d82523d6000602084013e612420565b606091505b50600081511415612466576040517f08c379a000000000000000000000000000000000000000000000000000000000815260040161245d9061388a565b60405180910390fd5b805181602001fd5b63150b7a0260e01b7bffffffffffffffffffffffffffffffffffffffffffffffffffffffff1916817bffffffffffffffffffffffffffffffffffffffffffffffffffffffff1916149150506124c3565b600190505b949350505050565b6124d58383612539565b6124e26000848484612334565b612521576040517f08c379a00000000000000000000000000000000000000000000000000000000081526004016125189061388a565b60405180910390fd5b505050565b600080823b905060008111915050919050565b600073ffffffffffffffffffffffffffffffffffffffff168273ffffffffffffffffffffffffffffffffffffffff1614156125a9576040517f08c379a00000000000000000000000000000000000000000000000000000000081526004016125a0906139ca565b60405180910390fd5b6125b2816116bd565b156125f2576040517f08c379a00000000000000000000000000000000000000000000000000000000081526004016125e9906138aa565b60405180910390fd5b6125fe6000838361232f565b6001600360008473ffffffffffffffffffffffffffffffffffffffff1673ffffffffffffffffffffffffffffffffffffffff168152602001908152602001600020600082825461264e9190613b7e565b92505081905550816002600083815260200190815260200160002060006101000a81548173ffffffffffffffffffffffffffffffffffffffff021916908373ffffffffffffffffffffffffffffffffffffffff160217905550808273ffffffffffffffffffffffffffffffffffffffff16600073ffffffffffffffffffffffffffffffffffffffff167fddf252ad1be2c89b69c2b068fc378daa952ba7f163c4a11628f55a4df523b3ef60405160405180910390a45050565b82805461271390613d8d565b90600052602060002090601f016020900481019282612735576000855561277c565b82601f1061274e57805160ff191683800117855561277c565b8280016001018555821561277c579182015b8281111561277b578251825591602001919060010190612760565b5b509050612789919061278d565b5090565b5b808211156127a657600081600090555060010161278e565b5090565b60006127bd6127b884613af6565b613ac5565b9050828152602081018484840111156127d557600080fd5b6127e0848285613d4b565b509392505050565b6000813590506127f781613f06565b92915050565b60008135905061280c81613f1d565b92915050565b60008135905061282181613f34565b92915050565b60008151905061283681613f34565b92915050565b600082601f83011261284d57600080fd5b813561285d8482602086016127aa565b91505092915050565b60008135905061287581613f4b565b92915050565b60006020828403121561288d57600080fd5b600061289b848285016127e8565b91505092915050565b600080604083850312156128b757600080fd5b60006128c5858286016127e8565b92505060206128d6858286016127e8565b9150509250929050565b6000806000606084860312156128f557600080fd5b6000612903868287016127e8565b9350506020612914868287016127e8565b925050604061292586828701612866565b9150509250925092565b6000806000806080858703121561294557600080fd5b6000612953878288016127e8565b9450506020612964878288016127e8565b935050604061297587828801612866565b925050606085013567ffffffffffffffff81111561299257600080fd5b61299e8782880161283c565b91505092959194509250565b600080604083850312156129bd57600080fd5b60006129cb858286016127e8565b92505060206129dc858286016127fd565b9150509250929050565b600080604083850312156129f957600080fd5b6000612a07858286016127e8565b9250506020612a1885828601612866565b9150509250929050565b600060208284031215612a3457600080fd5b6000612a4284828501612812565b91505092915050565b600060208284031215612a5d57600080fd5b6000612a6b84828501612827565b91505092915050565b600060208284031215612a8657600080fd5b6000612a9484828501612866565b91505092915050565b612aa681613cca565b82525050565b612ab581613cdc565b82525050565b6000612ac682613b3b565b612ad08185613b51565b9350612ae0818560208601613d5a565b612ae981613ef5565b840191505092915050565b6000612aff82613b46565b612b098185613b62565b9350612b19818560208601613d5a565b612b2281613ef5565b840191505092915050565b6000612b3882613b46565b612b428185613b73565b9350612b52818560208601613d5a565b80840191505092915050565b60008154612b6b81613d8d565b612b758186613b73565b94506001821660008114612b905760018114612ba157612bd4565b60ff19831686528186019350612bd4565b612baa85613b26565b60005b83811015612bcc57815481890152600182019150602081019050612bad565b838801955050505b50505092915050565b6000612bea603283613b62565b91507f4552433732313a207472616e7366657220746f206e6f6e20455243373231526560008301527f63656976657220696d706c656d656e74657200000000000000000000000000006020830152604082019050919050565b6000612c50601c83613b62565b91507f4552433732313a20746f6b656e20616c7265616479206d696e746564000000006000830152602082019050919050565b6000612c90600f83613b73565b91507f52414e444f4d5f42475f434f4c4f5200000000000000000000000000000000006000830152600f82019050919050565b6000612cd0600a83613b73565b91507f54484952445f574f5244000000000000000000000000000000000000000000006000830152600a82019050919050565b6000612d10600b83613b73565b91507f464f4e545f46414d494c590000000000000000000000000000000000000000006000830152600b82019050919050565b6000612d50602483613b62565b91507f4552433732313a207472616e7366657220746f20746865207a65726f2061646460008301527f72657373000000000000000000000000000000000000000000000000000000006020830152604082019050919050565b6000612db6601983613b62565b91507f4552433732313a20617070726f766520746f2063616c6c6572000000000000006000830152602082019050919050565b6000612df6606383613b73565b91507f222c20226465736372697074696f6e223a20224120686967686c79206163636c60008301527f61696d656420636f6c6c656374696f6e206f6620737175617265732e222c202260208301527f696d616765223a2022646174613a696d6167652f7376672b786d6c3b6261736560408301527f36342c00000000000000000000000000000000000000000000000000000000006060830152606382019050919050565b6000612ea8600b83613b73565b91507f5345434f4e445f574f52440000000000000000000000000000000000000000006000830152600b82019050919050565b6000612ee8602c83613b62565b91507f4552433732313a206f70657261746f7220717565727920666f72206e6f6e657860008301527f697374656e7420746f6b656e00000000000000000000000000000000000000006020830152604082019050919050565b6000612f4e600d83613b73565b91507f3c2f746578743e3c2f7376673e000000000000000000000000000000000000006000830152600d82019050919050565b6000612f8e603883613b62565b91507f4552433732313a20617070726f76652063616c6c6572206973206e6f74206f7760008301527f6e6572206e6f7220617070726f76656420666f7220616c6c00000000000000006020830152604082019050919050565b6000612ff4602a83613b62565b91507f4552433732313a2062616c616e636520717565727920666f7220746865207a6560008301527f726f2061646472657373000000000000000000000000000000000000000000006020830152604082019050919050565b600061305a602983613b62565b91507f4552433732313a206f776e657220717565727920666f72206e6f6e657869737460008301527f656e7420746f6b656e00000000000000000000000000000000000000000000006020830152604082019050919050565b60006130c0602e83613b62565b91507f45524337323155524953746f726167653a2055524920736574206f66206e6f6e60008301527f6578697374656e7420746f6b656e0000000000000000000000000000000000006020830152604082019050919050565b6000613126602883613b62565b91507f4d617820416d6f756e74206f6620353030204e4654277320686173206265656e60008301527f20726561636865640000000000000000000000000000000000000000000000006020830152604082019050919050565b600061318c600283613b73565b91507f227d0000000000000000000000000000000000000000000000000000000000006000830152600282019050919050565b60006131cc602083613b62565b91507f4552433732313a206d696e7420746f20746865207a65726f20616464726573736000830152602082019050919050565b600061320c603183613b62565b91507f45524337323155524953746f726167653a2055524920717565727920666f722060008301527f6e6f6e6578697374656e7420746f6b656e0000000000000000000000000000006020830152604082019050919050565b6000613272601083613b73565b91507f52414e444f4d5f5458545f434f4c4f52000000000000000000000000000000006000830152601082019050919050565b60006132b2602c83613b62565b91507f4552433732313a20617070726f76656420717565727920666f72206e6f6e657860008301527f697374656e7420746f6b656e00000000000000000000000000000000000000006020830152604082019050919050565b6000613318602983613b62565b91507f4552433732313a207472616e73666572206f6620746f6b656e2074686174206960008301527f73206e6f74206f776e00000000000000000000000000000000000000000000006020830152604082019050919050565b600061337e602f83613b62565b91507f4552433732314d657461646174613a2055524920717565727920666f72206e6f60008301527f6e6578697374656e7420746f6b656e00000000000000000000000000000000006020830152604082019050919050565b60006133e4600a83613b73565b91507f7b226e616d65223a2022000000000000000000000000000000000000000000006000830152600a82019050919050565b6000613424602183613b62565b91507f4552433732313a20617070726f76616c20746f2063757272656e74206f776e6560008301527f72000000000000000000000000000000000000000000000000000000000000006020830152604082019050919050565b600061348a600a83613b73565b91507f46495253545f574f5244000000000000000000000000000000000000000000006000830152600a82019050919050565b60006134ca601d83613b73565b91507f646174613a6170706c69636174696f6e2f6a736f6e3b6261736536342c0000006000830152601d82019050919050565b600061350a603183613b62565b91507f4552433732313a207472616e736665722063616c6c6572206973206e6f74206f60008301527f776e6572206e6f7220617070726f7665640000000000000000000000000000006020830152604082019050919050565b61356c81613d34565b82525050565b600061357e8284612b2d565b915081905092915050565b60006135958285612b2d565b91506135a18284612b2d565b91508190509392505050565b60006135b98286612b2d565b91506135c58285612b2d565b91506135d18284612b2d565b9150819050949350505050565b60006135ea828d612b5e565b91506135f6828c612b2d565b9150613602828b612b5e565b915061360e828a612b2d565b915061361a8289612b5e565b91506136268288612b2d565b91506136328287612b5e565b915061363e8286612b2d565b915061364a8285612b2d565b91506136568284612b2d565b915061366182612f41565b91508190509b9a5050505050505050505050565b600061368082612c83565b915061368c8284612b2d565b915081905092915050565b60006136a282612cc3565b91506136ae8284612b2d565b915081905092915050565b60006136c482612d03565b91506136d08284612b2d565b915081905092915050565b60006136e682612e9b565b91506136f28284612b2d565b915081905092915050565b600061370882613265565b91506137148284612b2d565b915081905092915050565b600061372a826133d7565b91506137368285612b2d565b915061374182612de9565b915061374d8284612b2d565b91506137588261317f565b91508190509392505050565b600061376f8261347d565b915061377b8284612b2d565b915081905092915050565b6000613791826134bd565b915061379d8284612b2d565b915081905092915050565b60006020820190506137bd6000830184612a9d565b92915050565b60006080820190506137d86000830187612a9d565b6137e56020830186612a9d565b6137f26040830185613563565b81810360608301526138048184612abb565b905095945050505050565b60006020820190506138246000830184612aac565b92915050565b600060208201905081810360008301526138448184612af4565b905092915050565b600060608201905081810360008301526138668186612af4565b90506138756020830185613563565b6138826040830184612a9d565b949350505050565b600060208201905081810360008301526138a381612bdd565b9050919050565b600060208201905081810360008301526138c381612c43565b9050919050565b600060208201905081810360008301526138e381612d43565b9050919050565b6000602082019050818103600083015261390381612da9565b9050919050565b6000602082019050818103600083015261392381612edb565b9050919050565b6000602082019050818103600083015261394381612f81565b9050919050565b6000602082019050818103600083015261396381612fe7565b9050919050565b600060208201905081810360008301526139838161304d565b9050919050565b600060208201905081810360008301526139a3816130b3565b9050919050565b600060208201905081810360008301526139c381613119565b9050919050565b600060208201905081810360008301526139e3816131bf565b9050919050565b60006020820190508181036000830152613a03816131ff565b9050919050565b60006020820190508181036000830152613a23816132a5565b9050919050565b60006020820190508181036000830152613a438161330b565b9050919050565b60006020820190508181036000830152613a6381613371565b9050919050565b60006020820190508181036000830152613a8381613417565b9050919050565b60006020820190508181036000830152613aa3816134fd565b9050919050565b6000602082019050613abf6000830184613563565b92915050565b6000604051905081810181811067ffffffffffffffff82111715613aec57613aeb613ec6565b5b8060405250919050565b600067ffffffffffffffff821115613b1157613b10613ec6565b5b601f19601f8301169050602081019050919050565b60008190508160005260206000209050919050565b600081519050919050565b600081519050919050565b600082825260208201905092915050565b600082825260208201905092915050565b600081905092915050565b6000613b8982613d34565b9150613b9483613d34565b9250827fffffffffffffffffffffffffffffffffffffffffffffffffffffffffffffffff03821115613bc957613bc8613e39565b5b828201905092915050565b6000613bdf82613d3e565b9150613bea83613d3e565b92508260ff03821115613c0057613bff613e39565b5b828201905092915050565b6000613c1682613d34565b9150613c2183613d34565b925082613c3157613c30613e68565b5b828204905092915050565b6000613c4782613d34565b9150613c5283613d34565b9250817fffffffffffffffffffffffffffffffffffffffffffffffffffffffffffffffff0483118215151615613c8b57613c8a613e39565b5b828202905092915050565b6000613ca182613d34565b9150613cac83613d34565b925082821015613cbf57613cbe613e39565b5b828203905092915050565b6000613cd582613d14565b9050919050565b60008115159050919050565b60007fffffffff0000000000000000000000000000000000000000000000000000000082169050919050565b600073ffffffffffffffffffffffffffffffffffffffff82169050919050565b6000819050919050565b600060ff82169050919050565b82818337600083830152505050565b60005b83811015613d78578082015181840152602081019050613d5d565b83811115613d87576000848401525b50505050565b60006002820490506001821680613da557607f821691505b60208210811415613db957613db8613e97565b5b50919050565b6000613dca82613d34565b91507fffffffffffffffffffffffffffffffffffffffffffffffffffffffffffffffff821415613dfd57613dfc613e39565b5b600182019050919050565b6000613e1382613d34565b9150613e1e83613d34565b925082613e2e57613e2d613e68565b5b828206905092915050565b7f4e487b7100000000000000000000000000000000000000000000000000000000600052601160045260246000fd5b7f4e487b7100000000000000000000000000000000000000000000000000000000600052601260045260246000fd5b7f4e487b7100000000000000000000000000000000000000000000000000000000600052602260045260246000fd5b7f4e487b7100000000000000000000000000000000000000000000000000000000600052604160045260246000fd5b6000601f19601f8301169050919050565b613f0f81613cca565b8114613f1a57600080fd5b50565b613f2681613cdc565b8114613f3157600080fd5b50565b613f3d81613ce8565b8114613f4857600080fd5b50565b613f5481613d34565b8114613f5f57600080fd5b5056fe416e204e465420772f20494420257320686173206265656e206d696e74656420746f2025734142434445464748494a4b4c4d4e4f505152535455565758595a6162636465666768696a6b6c6d6e6f707172737475767778797a303132333435363738392b2fa26469706673582212207dc0d949236353a5dc7056c76cd2b55207e269873a10218207163b45613d2b6964736f6c634300080000333c73766720786d6c6e733d27687474703a2f2f7777772e77332e6f72672f323030302f73766727207072657365727665417370656374526174696f3d27784d696e594d696e206d656574272076696577426f783d273020302035303020353030273e3c7374796c653e2e62617365207b2066696c6c3a20272327202f3e3c7465787420783d273530252720793d273530252720636c6173733d27626173652720646f6d696e616e742d626173656c696e653d276d6964646c652720746578742d616e63686f723d276d6964646c65273e3b20666f6e742d73697a653a20323470783b207d3c2f7374796c653e3c726563742077696474683d273130302527206865696768743d2731303025272066696c6c3d2723",
  "linkReferences": {},
  "deployedLinkReferences": {}
}